S01A0000313230422046696E616C2050726F6A6563742E7372656334
S11300004DC1000068C1000066C1000064C1000069
S113001062C1000060C100005EC100005CC100005C
S11300205AC1000058C1000056C1000054C100006C
S113003052C1000050C100004EC100004CC100007C
S11300404AC1000048C1000046C1000044C100008C
S113005042C1000040C100003EC100003CC100009C
S11300603AC1000038C1000036C1000034C10000AC
S113007032C1000030C100002EC100002CC10000BC
S11300802AC1000028C1000026C1000000000000B1
S1130090000000000000000000000000000000005C
S11300A0000000000000000000000000000000004C
S11300B0000000000000000000000000000000003C
S11300C0000000000000000000000000000000002C
S11300D0000000000000000000000000000000001C
S11300E000000000000000000008F8F848E8E808F4
S11300F000002000F8F8202000000000C0A06020CC
S11301002060600004FCFC602020E0C000000000CF
S11301103C2C3C00000020E080602020E0C0000077
S113012000000000000000000000000000000000CB
S113013000000000000000000000000000040707A9
S11301400404040402000000030704040200000085
S1130150030704040402000004070704000407075B
S11301600400000000000000000004070700000471
S11301700707040000000000000000000000000069
S1130180000000000000000000000000000000006B
S113019000000000000060F0909090B03000000873
S11301A0F8F800404040000080C0404040C080005B
S11301B04040F0F040404000000080C0C04040C0DB
S11301C0C00008F8F8C04040C080000000000000F3
S11301D0000000000000000000000000000000001B
S11301E0000000000000000000000E0C08080807D2
S11301F00F0000080F0F030F0C080800060D090973
S1130200090D04000000070F080804040000070F8C
S1130210080808040000080F0F0800080F0F080062
S113022000000000000000000000000000000000CA
S113023000000000000000000000000000000000BA
S113024000000000000000000000000000000000AA
S1130250000000000000000000000000000000009A
S1130260000000000000000000000000000000008A
S1130270000000000000000000000000000000007A
S1130280000000000E0A0E0A0A0A0A0402060A0AFC
S11302900A0A0C081F110E0A0C0A111F11241FBE92
S11302A0CFEFD0E4DEBFCDBF12E0A0E0B1E0ECEED2
S11302B0F1E100E00BBF02C007900D92A432B10738
S11302C0D9F724E0A4E2B2E001C01D92A633B2073C
S11302D0E1F77AD289C794CECF93DF93CDB7DEB757
S11302E081E018D0DF91CF910895CF93DF93CDB7FC
S11302F0DEB784E690E0A7D088E30CD086E00AD08D
S11303008FE008D081E006D08AE090E09CD0DF91B5
S1130310CF910895CF93DF931F92CDB7DEB7898332
S11303208BE290E02BE230E0F90120812F7BFC018D
S1130330208388E290E02981FC0120838BE290E015
S11303402BE230E0F90120812068FC0120830000C9
S11303508BE290E02BE230E0F90120812F77FC0161
S1130360208382E090E06FD00F90DF91CF910895C9
S1130370CF93DF931F92CDB7DEB789838BE290E0F2
S11303802BE230E0F90120812064FC01208388E223
S113039090E02981FC0120838BE290E02BE230E0A5
S11303A0F90120812068FC01208300008BE290E0A9
S11303B02BE230E0F90120812F77FC01208381E0DA
S11303C090E041D00F90DF91CF910895CF93DF93C8
S11303D000D000D0CDB7DEB78A837C836B837CDF0B
S11303E08A8189830FC0898191E0980F998317D0FE
S11303F08B819C819C012F5F3F4F3C832B83FC01AD
S11304008081B6DF8B819C81FC018081882359F730
S11304100F900F900F900F90DF91CF910895CF938D
S1130420DF931F92CDB7DEB789838981813120F4B0
S1130430898181586FDF03C0898181556BDF0F90FB
S1130440DF91CF910895CF93DF9300D000D000D0F7
S1130450CDB7DEB79E838D831A82198213C01C82A6
S11304601B8206C000008B819C8101969C838B8338
S11304708B819C8187309340ACF389819A8101966A
S11304809A83898329813A818D819E81281739072E
S113049034F326960FB6F894DEBF0FBECDBFDF91BE
S11304A0CF910895CF93DF93CDB7DEB785E290E087
S11304B025E230E0F90120812260FC01208384E2FE
S11304C090E024E230E0F9012081276AFC012083D6
S11304D062D185E290E025E230E0F90120812D7FB0
S11304E0FC01208358D185E290E025E230E0F90157
S11304F020812260FC0120838CE490E020E5FC0153
S1130500208385E290E025E230E0F9012081246037
S1130510FC01208360E070E081E2F9D060E070E0EB
S113052088ECF5D060E070E086E0F1D060E070E047
S113053083E1EDD060E070E080E2E9D060E070E05B
S11305408CE0E5D088EF91E090931D0480931C0427
S113055010921F0410921E041BD056D0DF91CF912D
S11305600895CF93DF931F92CDB7DEB7898360E000
S113057070E081E2CCD08981806860E070E0C7D00F
S113058060E070E080E2C3D00F90DF91CF910895D6
S1130590CF93DF93CDB7DEB748EF51E060E070E072
S11305A084E292E0B5D510921D0410921C0487EFEA
S11305B091E090931F0480931E0481E080932004B3
S11305C0DF91CF910895CF93DF9300D0CDB7DEB7FD
S11305D09A83898389819A8148EF51E0BC0184E23E
S11305E092E08DD510921D0410921C0487EF91E0C7
S11305F090931F0480931E0481E0809320040F9045
S11306000F90DF91CF910895CF93DF9300D000D066
S113061000D0CDB7DEB780911C0490911D049923BE
S11306202CF410921D0410921C040DC080911C0423
S113063090911D04883F914034F087EF91E09093AE
S11306401D0480931C0480911E0490911F0499231F
S11306502CF410921F0410921E040DC080911E04ED
S113066090911F04883F914034F087EF91E090937C
S11306701F0480931E0480911C0490911D0424E5A2
S113068030E0B90129D5806860E070E040D0809105
S11306901C0490911D0424E530E0B9011DD5CB0163
S11306A0806460E070E033D080911C0490911D045C
S11306B09A8389830EC089819A818C5D9D4FFC0148
S11306C0808161E070E023D089819A8101969A83C8
S11306D0898380911E0490911F0429813A81821795
S11306E093074CF787EF91E090931D0480931C04CB
S11306F010921F0410921E041092200426960FB626
S1130700F894DEBF0FBECDBFDF91CF910895CF9394
S1130710DF9300D01F92CDB7DEB789837B836A83D2
S113072085E290E025E230E0F90120812B7FFC0195
S113073020838A819B81019751F485E290E025E230
S113074030E0F90120812160FC01208309C085E2A9
S113075090E025E230E0F90120812E7FFC01208326
S11307608EE490E02981FC01208300008DE490E078
S1130770FC0180818823D4F785E290E025E230E013
S1130780F90120812460FC0120830F900F900F90C9
S1130790DF91CF910895CF93DF9300D0CDB7DEB72B
S11307A080E093E89A83898305C089819A810196C0
S11307B09A83898389819A8181159D47B4F30F9027
S11307C00F90DF91CF9108958F929F92AF92BF9235
S11307D0CF92DF92EF92FF92CF93DF93CDB7DEB744
S11307E0E9970FB6F894DEBF0FBECDBF81E290E06B
S11307F0FC01108282E290E02FEFFC01208384E26E
S113080090E02FEFFC01208385E290E0FC01108250
S113081087E290E02FEFFC01208388E290E0FC0166
S113082010828AE290E02FEFFC0120838BE290E0BB
S1130830FC0110821A82198261E084E892E0B6D148
S113084062E08CE892E0B2D163E084E992E0AED158
S1130850809100018823A1F080E090E0A8D48093E7
S1130860280481E090E0ABD490932E0480932D046F
S113087083E090E0A4D490932A04809329040FC0C9
S113088082E3809328048FEF93E090932A0480936B
S113089029048AED93E090932E0480932D0443D190
S11308A024DD00DE82E35DDEAFDE1B821C821D825E
S11308B08CE890E088DEA8DE80E290E0FC01808194
S11308C08095847080932F0480E290E0FC01808105
S11308D0809588708093250480E290E0FC018081FB
S11308E0809580718093310480E290E0FC018081E6
S11308F0809580728093300480E026D19093220406
S113090080932104209121043091220480912D04AC
S113091090912E0443E0B9018CD1809323048091FB
S1130920290490912A04CC01A0E0B0E0BC01CD01DF
S1130930CED26B017C0181E007D1CC01A0E0B0E014
S1130940BC01CD01C4D24B015C018091290490917A
S11309502A04CC01A0E0B0E0BC01CD01B8D2DC0196
S1130960CB019C01AD01C501B4011DD2DC01CB0159
S11309709C01AD0160E070E080E89FE3AFD1DC0151
S1130980CB019C01AD01C701B6012FD3DC01CB0122
S1130990BC01CD0170D2DC01CB019093350480936E
S11309A034042091340430913504809129049091C9
S11309B02A0443E0B9013DD1809324048CE492E5F8
S11309C0AAE3B0E08A8F9B8FAC8FBD8F2CE1CE0160
S11309D04E96FC01322F11923A95E9F78091230447
S11309E0882F90E09E012A5F3F4F4AE050E0B90112
S11309F0A1D380912404882F90E09E01265F3F4F6D
S1130A004AE050E0B90196D38091210490912204E8
S1130A109C01CE010E964AE050E0BC01C9018AD384
S1130A2080913404909135049C01CE0144964AE0AF
S1130A3050E0BC01C9017ED39E012A5F3F4FCE0125
S1130A404A96B9016CD3CE014A969C01F9010190F2
S1130A500020E9F7CF010197821B930B9E01265ECC
S1130A603F4F820F931F20E230E0FC01318320834B
S1130A709E01225F3F4FCE014A96B90150D3CE0169
S1130A804A969C01F90101900020E9F7CF010197F2
S1130A90821B930B9E01265E3F4F820F931F25E01E
S1130AA0EEE1F2E0DC0101900D922A95E1F79E015E
S1130AB0265F3F4FCE014A96B90131D3CE014A9603
S1130AC09C01F90101900020E9F7CF010197821BF5
S1130AD0930B9E01265E3F4F820F931F20E230E06E
S1130AE0FC01318320839E012C5E3F4FCE014A9648
S1130AF0B90115D389819A81843F914071F4809121
S1130B0028042FDD8CE890E05EDD7EDDCE014A9680
S1130B10BC0181E05BDC1A82198289819A81019689
S1130B209A838983C9CECF93DF93CDB7DEB78CE7A1
S1130B3090E020E4FC0120838AE790E027E8FC01B0
S1130B402083DF91CF910895CF93DF931F92CDB788
S1130B50DEB789838981877089838CE790E02CE7ED
S1130B6030E0F9012081322F387F2981232BFC01C9
S1130B7020838AE790E02AE730E0F90120812064AD
S1130B80FC01208300008AE790E0FC018081882F2B
S1130B9090E080749927892BB1F788E790E0FC01F5
S1130BA0808191810F90DF91CF910895CF93DF934E
S1130BB0CDB7DEB72A970FB6F894DEBF0FBECDBF10
S1130BC0998788876A878A85882F90E0880F991F7C
S1130BD0880F991F880F991F806489831B821A824A
S1130BE01BC0288539858A819B81820F931F9D8331
S1130BF08C838C819D81FC0184918E838E818F8373
S1130C00898191E0980F998385DB8F81B1DB8A819B
S1130C109B8101969B838A838A819B81089708F331
S1130C202A960FB6F894DEBF0FBECDBFDF91CF91E9
S1130C300895CF93DF93CDB7DEB72B970FB6F89413
S1130C40DEBF0FBECDBF9E838D8378876F834987B8
S1130C508985282F30E08D819E81B90129D2CB016D
S1130C609C838B8381E08A8329C08A81482F50E04A
S1130C708B819C81489F9001499F300D589F300D76
S1130C8011248F81988528173907A8F08A81882F25
S1130C9090E00197AC018B819C81489F9001499F12
S1130CA0300D589F300D11248F819885821793073A
S1130CB010F08A8189838A818F5F8A839A818985EA
S1130CC0891798F68981882F90E02B960FB6F894AF
S1130CD0DEBF0FBECDBFDF91CF9108955058BB2723
S1130CE0AA270ED048C139D130F03ED120F031F4DA
S1130CF09F3F11F41EF42EC10EF4E095E7FB24C1CE
S1130D00E92F4AD180F3BA1762077307840795075E
S1130D1018F071F49EF562C10EF4E0950B2EBA2F13
S1130D20A02D0B01B90190010C01CA01A0011124ED
S1130D30FF27591B99F0593F50F4503E68F11A1699
S1130D40F040A22F232F342F4427585FF3CF46952A
S1130D5037952795A795F0405395C9F77EF41F164C
S1130D60BA0B620B730B840BBAF09150A1F0FF0F16
S1130D70BB1F661F771F881FC2F70EC0BA0F621F02
S1130D80731F841F48F4879577956795B795F795F2
S1130D909E3F08F0B3CF9395880F08F09927EE0F84
S1130DA09795879508950CD0E6C0DED040F0D5D055
S1130DB030F021F45F3F19F0C7C0511110C1CAC00F
S1130DC0EBD098F39923C9F35523B1F3951B550B35
S1130DD0BB27AA2762177307840738F09F5F5F4F0A
S1130DE0220F331F441FAA1FA9F333D00E2E3AF04B
S1130DF0E0E830D091505040E695001CCAF729D065
S1130E00FE2F27D0660F771F881FBB1F26173707B3
S1130E104807AB07B0E809F0BB0B802DBF01FF27E3
S1130E2093585F4F2AF09E3F510568F08DC0D7C09C
S1130E305F3FECF3983EDCF3869577956795B7951D
S1130E40F7959F5FC9F7880F911D9695879597F938
S1130E500895E1E0660F771F881FBB1F62177307B1
S1130E608407BA0720F0621B730B840BBA0BEE1FC6
S1130E7088F7E095089598D088F09F5790F0B92F9F
S1130E809927B751A0F0D1F0660F771F881F991FDB
S1130E901AF0BA95C9F712C0B13081F09FD0B1E011
S1130EA008959CC0672F782F8827B85F39F0B93F21
S1130EB0CCF3869577956795B395D9F73EF49095DD
S1130EC08095709561957F4F8F4F9F4F0895E8945B
S1130ED009C097FB3EF490958095709561957F4F7E
S1130EE08F4F9F4F9923A9F0F92F96E9BB2793952C
S1130EF0F695879577956795B795F111F8CFFAF43C
S1130F00BB0F11F460FF1BC06F5F7F4F8F4F9F4F6C
S1130F1016C0882311F096E911C0772321F09EE8CA
S1130F20872F762F05C0662371F096E8862F70E030
S1130F3060E02AF09A95660F771F881FDAF7880F0A
S1130F409695879597F9089597F99F6780E870E0DB
S1130F5060E008959FEF80EC089500240A9416162B
S1130F60170618060906089500240A941216130693
S1130F70140605060895092E0394000C11F4882321
S1130F8052F0BB0F40F4BF2B11F460FF04C06F5F3D
S1130F907F4F8F4F9F4F089557FD9058440F551F13
S1130FA059F05F3F71F04795880F97FB991F61F0E7
S1130FB09F3F79F087950895121613061406551F5E
S1130FC0F2CF4695F1DF08C0161617061806991FCA
S1130FD0F1CF86957105610508940895E894BB27BF
S1130FE066277727CB0197F908950BD0C4CFB5DFD7
S1130FF028F0BADF18F0952309F0A6CFABCF11245F
S1131000EECFCADFA0F3959FD1F3950F50E0551FA3
S1131010629FF001729FBB27F00DB11D639FAA2749
S1131020F00DB11DAA1F649F6627B00DA11D661F98
S1131030829F2227B00DA11D621F739FB00DA11DB9
S1131040621F839FA00D611D221F749F3327A00D73
S1131050611D231F849F600D211D822F762F6A2F0F
S113106011249F5750408AF0E1F088234AF0EE0F94
S1131070FF1FBB1F661F771F881F91505040A9F7A1
S11310809E3F510570F060CFAACF5F3FECF3983ECE
S1131090DCF3869577956795B795F795E7959F5F08
S11310A0C1F7FE2B880F911D9695879597F90895A2
S11310B0AA1BBB1B51E107C0AA1FBB1FA617B7077A
S11310C010F0A61BB70B881F991F5A95A9F7809596
S11310D09095BC01CD01089597FB072E16F400945A
S11310E006D077FD08D0E4DF07FC05D03EF49095E8
S11310F081959F4F0895709561957F4F0895FB01E9
S1131100DC0102C005900D9241505040D8F708957B
S1131110DC0101C06D9341505040E0F70895FB019C
S1131120DC010D900020E9F7119701900D92002049
S1131130E1F708954532510518F4423008F004C02F
S1131140FB011082CB010895BB274A3031F4992367
S113115022F4BDE2909581959F4F01C0BB27FB010E
S11311605527AA27880F991FAA1FA41710F0A41B9C
S113117083955051B9F7A05DAA3308F0A95DA193F6
S1131180009779F7B111B1931192CB0100C0DC0142
S1131190FC01672F71917723E1F7329704C07C91AA
S11311A06D9370836291AE17BF07C8F30895F999E0
S11311B0FECF92BD81BDF89A992780B50895A8E124
S11311C0B0E042E050E002C0DC01CB01FC01F9993F
S11311D0FECF06C0F2BDE1BDF89A319600B40D927F
S10F11E041505040B8F70895F894FFCF38
S11311EC0143616E766173204D6F6465202020315C
S11311FC2053657474696E67204D6F6465202032CA
S113120C2000557365204A6F79737469636B20747D
S113121C6F2053656C656374204D6F646500546F67
S113122C20676F206261636B207072657373423444
S113123C0053657420436F6E7472617374202020A4
S113124C20507265737320423400536574205544E6
S113125C20414443204D4158202050726573732023
S113126C423400536574204C5220414443204D4178
S113127C5820205072657373204234005361766594
S113128C6420507265737320616E79206B657920CC
S113129C746F2072657475726E0053617665643A6E
S11312AC200000000000000000000000000000000E
S11312BC00000000000000000000204E65773A207A
S11312CC000000000000000000000000000000000E
S11312DC0000000000000000000042313A202020F1
S11312EC42323A2020202020202042333A20202051
S11312FC42343A20457869740020593A200020552C
S107130C443A00005B
S9030000FC
