S01A0000313230422046696E616C2050726F6A6563742E7372656334
S11300004DC1000069C1000067C1000065C1000066
S113001063C1000061C100005FC100005DC1000058
S11300205BC1000059C1000057C1000055C1000068
S113003053C1000051C100004FC100004DC1000078
S11300404BC1000049C1000047C1000045C1000088
S113005043C1000041C100003FC100003DC1000098
S11300603BC1000039C1000037C1000035C10000A8
S113007033C1000031C100002FC100002DC10000B8
S11300802BC1000029C1000027C1000000000000AE
S1130090000000000000000000000000000000005C
S11300A0000000000000000000000000000000004C
S11300B0000000000000000000000000000000003C
S11300C0000000000000000000000000000000002C
S11300D0000000000000000000000000000000001C
S11300E000000000000000000008F8F848E8E808F4
S11300F000002000F8F8202000000000C0A06020CC
S11301002060600004FCFC602020E0C000000000CF
S11301103C2C3C00000020E080602020E0C0000077
S113012000000000000000000000000000000000CB
S113013000000000000000000000000000040707A9
S11301400404040402000000030704040200000085
S1130150030704040402000004070704000407075B
S11301600400000000000000000004070700000471
S11301700707040000000000000000000000000069
S1130180000000000000000000000000000000006B
S113019000000000000060F0909090B03000000873
S11301A0F8F800404040000080C0404040C080005B
S11301B04040F0F040404000000080C0C04040C0DB
S11301C0C00008F8F8C04040C080000000000000F3
S11301D0000000000000000000000000000000001B
S11301E0000000000000000000000E0C08080807D2
S11301F00F0000080F0F030F0C080800060D090973
S1130200090D04000000070F080804040000070F8C
S1130210080808040000080F0F0800080F0F080062
S113022000000000000000000000000000000000CA
S113023000000000000000000000000000000000BA
S113024000000000000000000000000000000000AA
S1130250000000000000000000000000000000009A
S1130260000000000000000000000000000000008A
S1130270000000000000000000000000000000007A
S1130280000000000E0A0E0A0A0A0A0402060A0AFC
S11302900A0A0C081F110E0A0C0A111F11241FBE92
S11302A0CFEFD0E4DEBFCDBF11E0A0E0B1E0E2E4E7
S11302B0F3E100E00BBF02C007900D92A431B10737
S11302C0D9F725E0A4E1B1E001C01D92AA30B2073C
S11302D0E1F78BD20C949F0993CECF93DF93CDB7E4
S11302E0DEB781E018D0DF91CF910895CF93DF93EB
S11302F0CDB7DEB784E690E0A7D088E30CD086E0E3
S11303000AD08FE008D081E006D08AE090E09CD04B
S1130310DF91CF910895CF93DF931F92CDB7DEB7CE
S113032089838BE290E02BE230E0F90120812F7B7E
S1130330FC01208388E290E02981FC0120838BE288
S113034090E02BE230E0F90120812068FC01208359
S113035000008BE290E02BE230E0F90120812F775E
S1130360FC01208382E090E06FD00F90DF91CF9169
S11303700895CF93DF931F92CDB7DEB789838BE2C5
S113038090E02BE230E0F90120812064FC0120831D
S113039088E290E02981FC0120838BE290E02BE24B
S11303A030E0F90120812068FC01208300008BE209
S11303B090E02BE230E0F90120812F77FC012083CB
S11303C081E090E041D00F90DF91CF910895CF93D9
S11303D0DF9300D000D0CDB7DEB78A837C836B83F4
S11303E07CDF8A8189830FC0898191E0980F99838A
S11303F017D08B819C819C012F5F3F4F3C832B83C3
S1130400FC018081B6DF8B819C81FC018081882383
S113041059F70F900F900F900F90DF91CF9108959F
S1130420CF93DF931F92CDB7DEB789838981813162
S113043020F4898181586FDF03C0898181556BDF86
S11304400F90DF91CF910895CF93DF9300D000D028
S113045000D0CDB7DEB79E838D831A82198213C074
S11304601C821B8206C000008B819C8101969C83A8
S11304708B838B819C8187309340ACF389819A81F3
S113048001969A83898329813A818D819E812817D7
S1130490390734F326960FB6F894DEBF0FBECDBFEE
S11304A0DF91CF910895CF93DF93CDB7DEB785E287
S11304B090E025E230E0F90120812260FC012083F4
S11304C084E290E024E230E0F9012081276AFC0113
S11304D0208362D185E290E025E230E0F9012081B9
S11304E02D7FFC01208358D185E290E025E230E0A5
S11304F0F90120812260FC0120838CE490E020E556
S1130500FC01208385E290E025E230E0F9012081BE
S11305102460FC01208360E070E081E2F9D060E0B7
S113052070E088ECF5D060E070E086E0F1D060E047
S113053070E083E1EDD060E070E080E2E9D060E05B
S113054070E08CE0E5D088EF91E090930D03809308
S11305500C0310920F0310920E031BD056D0DF91A0
S1130560CF910895CF93DF931F92CDB7DEB78983E0
S113057060E070E081E2CCD08981806860E070E066
S1130580C7D060E070E080E2C3D00F90DF91CF91DC
S11305900895CF93DF93CDB7DEB748EF51E060E025
S11305A070E084E191E002D610920D0310920C03E6
S11305B087EF91E090930F0380930E0381E0809383
S11305C01003DF91CF910895CF93DF9300D0CDB77F
S11305D0DEB79A83898389819A8148EF51E0BC010F
S11305E084E191E0DAD510920D0310920C0387EFA9
S11305F091E090930F0380930E0381E080931003A6
S11306000F900F90DF91CF910895CF93DF9300D097
S113061000D000D0CDB7DEB780910C0390910D03CC
S113062099232CF410920D0310920C030DC08091A9
S11306300C0390910D03883F914034F087EF91E0D3
S113064090930D0380930C0380910E0390910F03FC
S113065099232CF410920F0310920E030DC0809175
S11306600E0390910F03883F914034F087EF91E09F
S113067090930F0380930E0380910C0390910D03CC
S113068024E530E0B90121D5806860E070E040D015
S113069080910C0390910D0324E530E0B90115D548
S11306A0CB01806460E070E033D080910C039091C2
S11306B00D039A8389830EC089819A818C5E9E4F33
S11306C0FC01808161E070E023D089819A810196E8
S11306D09A83898380910E0390910F0329813A8133
S11306E0821793074CF787EF91E090930D03809363
S11306F00C0310920F0310920E031092100326960F
S11307000FB6F894DEBF0FBECDBFDF91CF91089531
S1130710CF93DF9300D01F92CDB7DEB789837B835D
S11307206A8385E290E025E230E0F90120812B7FA5
S1130730FC0120838A819B81019751F485E290E03A
S113074025E230E0F90120812160FC01208309C009
S113075085E290E025E230E0F90120812E7FFC0162
S113076020838EE490E02981FC01208300008DE445
S113077090E0FC0180818823D4F785E290E025E2B3
S113078030E0F90120812460FC0120830F900F9058
S11307900F90DF91CF910895CF93DF9300D0CDB721
S11307A0DEB780E093E89A83898305C089819A81C2
S11307B001969A83898389819A8181159D47B4F32F
S11307C00F900F90DF91CF910895CF93DF9300D0D6
S11307D0CDB7DEB789836A83898122DE8A81C9DD48
S11307E00F900F90DF91CF9108958F929F92AF92C7
S11307F0BF92CF92DF92EF92FF92CF93DF93CDB768
S1130800DEB7C354D1090FB6F894DEBF0FBECDBF17
S113081081E290E0FC01108282E290E02FEFFC0183
S1130820208384E290E02FEFFC01208385E290E0B6
S1130830FC01108287E290E02FEFFC01208388E224
S113084090E0FC0110828AE290E02FEFFC0120830B
S11308508BE290E0FC0110821F821E8280EC9FE0FC
S113086096958795998F888F81E193E09B8F8A8FE6
S113087080910905882379F080E090E0E6D48D83A7
S113088081E090E0EAD49A83898383E090E0E5D420
S11308909C838B830AC082E38D838FEF93E09A83DA
S11308A089838AED93E09C838B8336D11FDDFBDD46
S11308B061E084E892E073D162E08CE892E06FD169
S11308C063E084E992E06BD180E090E05BD48CE457
S11308D092E5AAE3B0E08AA39BA3ACA3BDA32CE159
S11308E0CE018696FC01322F11923A95E9F780E009
S11308F024D1998788872885398589819A8143E01D
S1130900B90190D19B878A878B819C81CC01A0E01F
S1130910B0E0BC01CD01D4D26B017C0181E00DD1EA
S1130920CC01A0E0B0E0BC01CD01CAD24B015C0116
S11309308B819C81CC01A0E0B0E0BC01CD01C0D290
S1130940DC01CB019C01AD01C501B40125D2DC0160
S1130950CB019C01AD0160E070E080E89FE3B7D17A
S1130960DC01CB019C01AD01C701B60137D3DC0129
S1130970CB01BC01CD0178D2DC01CB019D878C87F2
S11309802C853D858B819C8143E0B9014BD19F87A8
S11309908E878A859B859E01205F3F4F4AE050E009
S11309A0B90116D48E859F859E012C5E3F4F4AE087
S11309B050E0B9010DD49E01205F3F4FCE018296D5
S11309C0B901FBD3CE0182969C01F901019000206C
S11309D0E9F7CF010197821B930B9E012E5D3F4FD8
S11309E0820F931F25E0E4E0F1E0DC0101900D9219
S11309F02A95E1F79E012C5E3F4FCE018296B90104
S1130A00DCD38E819F81843F914009F07FC08A8529
S1130A109B85039731F48D81843618F48D81865F2C
S1130A208D838E859F85039731F48D818B3018F0EB
S1130A308D818A508D838D8195DD8CE890E0C4DDB5
S1130A40E4DD8D81882F90E09E01245E3F4F4AE0D3
S1130A5050E0B901BDD393D324E630E0B90135D3D6
S1130A609C01CE014F964AE050E0BC01C901B0D3CD
S1130A70CE0182969C01F90101900020E9F7CF0193
S1130A800197821B930B9E012E5D3F4F820F931F94
S1130A9025E0E9E0F1E0DC0101900D922A95E1F70F
S1130AA09E01245E3F4FCE018296B90186D3CE01CA
S1130AB082969C01F90101900020E9F7CF0101978A
S1130AC0821B930B9E012E5D3F4F820F931F26E0E6
S1130AD0EEE0F1E0DC0101900D922A95E1F79E0130
S1130AE0215E3F4FCE018296B90167D3CE01829633
S1130AF0BC0181E06CDC61E087E167DE62E088E1F3
S1130B0064DE63E089E161DE1F821E828E819F8143
S1130B1001969F838E83DBCECF93DF93CDB7DEB771
S1130B208CE790E020E4FC0120838AE790E027E84A
S1130B30FC012083DF91CF910895CF93DF931F921F
S1130B40CDB7DEB789838981877089838CE790E08C
S1130B502CE730E0F9012081322F387F2981232BC3
S1130B60FC0120838AE790E02AE730E0F901208144
S1130B702064FC01208300008AE790E0FC0180816E
S1130B80882F90E080749927892BB1F788E790E04B
S1130B90FC01808191810F90DF91CF910895CF93D3
S1130BA0DF93CDB7DEB72A970FB6F894DEBF0FBE3A
S1130BB0CDBF998788876A878A85882F90E0880FB8
S1130BC0991F880F991F880F991F806489831B823E
S1130BD01A821BC0288539858A819B81820F931FC5
S1130BE09D838C838C819D81FC0184918E838E8175
S1130BF08F83898191E0980F99838DDB8F81B9DB95
S1130C008A819B8101969B838A838A819B81089731
S1130C1008F32A960FB6F894DEBF0FBECDBFDF915E
S1130C20CF910895CF93DF93CDB7DEB72B970FB64F
S1130C30F894DEBF0FBECDBF9E838D8378876F830C
S1130C4049878985282F30E08D819E81B90129D279
S1130C50CB019C838B8381E08A8329C08A81482FBE
S1130C6050E08B819C81489F9001499F300D589F93
S1130C70300D11248F81988528173907A8F08A81AF
S1130C80882F90E00197AC018B819C81489F900153
S1130C90499F300D589F300D11248F8198858217FC
S1130CA0930710F08A8189838A818F5F8A839A816E
S1130CB08985891798F68981882F90E02B960FB63D
S1130CC0F894DEBF0FBECDBFDF91CF910895505889
S1130CD0BB27AA270ED048C139D130F03ED120F02D
S1130CE031F49F3F11F41EF42EC10EF4E095E7FB9E
S1130CF024C1E92F4AD180F3BA1762077307840726
S1130D00950718F071F49EF562C10EF4E0950B2E70
S1130D10BA2FA02D0B01B90190010C01CA01A00149
S1130D201124FF27591B99F0593F50F4503E68F1A4
S1130D301A16F040A22F232F342F4427585FF3CFE5
S1130D40469537952795A795F0405395C9F77EF4B6
S1130D501F16BA0B620B730B840BBAF09150A1F0FF
S1130D60FF0FBB1F661F771F881FC2F70EC0BA0F85
S1130D70621F731F841F48F4879577956795B7950D
S1130D80F7959E3F08F0B3CF9395880F08F0992705
S1130D90EE0F9795879508950CD0E6C0DED040F00D
S1130DA0D5D030F021F45F3F19F0C7C0511110C104
S1130DB0CAC0EBD098F39923C9F35523B1F3951B1B
S1130DC0550BBB27AA2762177307840738F09F5F68
S1130DD05F4F220F331F441FAA1FA9F333D00E2ED7
S1130DE03AF0E0E830D091505040E695001CCAF744
S1130DF029D0FE2F27D0660F771F881FBB1F261709
S1130E0037074807AB07B0E809F0BB0B802DBF01DB
S1130E10FF2793585F4F2AF09E3F510568F08DC01D
S1130E20D7C05F3FECF3983EDCF3869577956795E2
S1130E30B795F7959F5FC9F7880F911D969587958C
S1130E4097F90895E1E0660F771F881FBB1F6217AB
S1130E5073078407BA0720F0621B730B840BBA0B69
S1130E60EE1F88F7E095089598D088F09F5790F08A
S1130E70B92F9927B751A0F0D1F0660F771F881FBB
S1130E80991F1AF0BA95C9F712C0B13081F09FD0FA
S1130E90B1E008959CC0672F782F8827B85F39F098
S1130EA0B93FCCF3869577956795B395D9F73EF41A
S1130EB090958095709561957F4F8F4F9F4F0895C2
S1130EC0E89409C097FB3EF49095809570956195E0
S1130ED07F4F8F4F9F4F9923A9F0F92F96E9BB2796
S1130EE09395F695879577956795B795F111F8CF12
S1130EF0FAF4BB0F11F460FF1BC06F5F7F4F8F4F7D
S1130F009F4F16C0882311F096E911C0772321F072
S1130F109EE8872F762F05C0662371F096E8862F0A
S1130F2070E060E02AF09A95660F771F881FDAF761
S1130F30880F9695879597F9089597F99F6780E8A4
S1130F4070E060E008959FEF80EC089500240A9417
S1130F501616170618060906089500240A94121690
S1130F601306140605060895092E0394000C11F4C3
S1130F70882352F0BB0F40F4BF2B11F460FF04C070
S1130F806F5F7F4F8F4F9F4F089557FD9058440FC9
S1130F90551F59F05F3F71F04795880F97FB991FD4
S1130FA061F09F3F79F08795089512161306140691
S1130FB0551FF2CF4695F1DF08C01616170618061E
S1130FC0991FF1CF86957105610508940895E894F9
S1130FD0BB2766277727CB0197F908950BD0C4CF99
S1130FE0B5DF28F0BADF18F0952309F0A6CFABCF10
S1130FF01124EECFCADFA0F3959FD1F3950F50E0F3
S1131000551F629FF001729FBB27F00DB11D639FB6
S1131010AA27F00DB11DAA1F649F6627B00DA11D5C
S1131020661F829F2227B00DA11D621F739FB00D02
S1131030A11D621F839FA00D611D221F749F332772
S1131040A00D611D231F849F600D211D822F762F0B
S11310506A2F11249F5750408AF0E1F088234AF008
S1131060EE0FFF1FBB1F661F771F881F9150504054
S1131070A9F79E3F510570F060CFAACF5F3FECF314
S1131080983EDCF3869577956795B795F795E79540
S11310909F5FC1F7FE2B880F911D9695879597F951
S11310A00895AA1BBB1B51E107C0AA1FBB1FA617AB
S11310B0B70710F0A61BB70B881F991F5A95A9F7FD
S11310C080959095BC01CD01089597FB072E16F4E9
S11310D0009406D077FD08D0E4DF07FC05D03EF489
S11310E0909581959F4F0895709561957F4F0895D0
S11310F08F929F92AF92BF92CF92DF92EF92FF9224
S1131100CF93DF93EC01688179818A819B8161159A
S113111071058105910521F464E279ED8BE597E091
S11311202DE133EF41E050E0ADD049015A019B017C
S1131130AC01A7EAB1E4C2D06B017C01ACEEB4EF20
S1131140A5019401C7D0DC01CB018C0D9D1DAE1D02
S1131150BF1DB7FF03C00197A109B04888839983D5
S1131160AA83BB839F77DF91CF91FF90EF90DF90AD
S1131170CF90BF90AF909F908F900895B9CF80E0AB
S113118091E0B6CFA0E0B0E080930001909301011C
S1131190A0930201B09303010895FB01DC0102C096
S11311A005900D9241505040D8F70895DC0101C0DC
S11311B06D9341505040E0F70895FB01DC010D9020
S11311C00020E9F7119701900D920020E1F70895AE
S11311D04532510518F4423008F004C0FB01108276
S11311E0CB010895BB274A3031F4992322F4BDE2A0
S11311F0909581959F4F01C0BB27FB015527AA27D6
S1131200880F991FAA1FA41710F0A41B839550518F
S1131210B9F7A05DAA3308F0A95DA193009779F707
S1131220B111B1931192CB0100C0DC01FC01672F15
S113123071917723E1F7329704C07C916D937083A9
S11312406291AE17BF07C8F30895F999FECF92BD16
S113125081BDF89A992780B50895A8E1B0E042E0ED
S113126050E002C0DC01CB01FC01F999FECF06C0BD
S1131270F2BDE1BDF89A319600B40D924150504050
S1131280B8F70895052E97FB16F400940FD057FD78
S113129005D024D007FC02D046F408C050954095F0
S11312A0309521953F4F4F4F5F4F0895909580950E
S11312B0709561957F4F8F4F9F4F089531D0A59FB3
S11312C0900DB49F900DA49F800D911D112408953D
S11312D0B7FFF4CFF3DF821B930B0895A1E21A2E1C
S11312E0AA1BBB1BFD010DC0AA1FBB1FEE1FFF1FC6
S11312F0A217B307E407F50720F0A21BB30BE40B16
S1131300F50B661F771F881F991F1A9469F760955C
S11313107095809590959B01AC01BD01CF01089516
S1131320A29FB001B39FC001A39F700D811D112422
S1131330911DB29F700D811D1124911D0895F89483
S1051340FFCFD9
S1131342010000002055443A002043543A00205240
S10713524E443A00C7
S9030000FC
